:020000040800F2
:1000000058060020450100084D0100084F01000876
:1000100051010008530100085501000800000000CC
:100020000000000000000000000000005701000870
:1000300059010008000000005B010008412400088D
:100040005F0100085F0100085F0100085F01000810
:100050005F0100085F0100085F0100085F01000800
:100060005F0100085F0100085F0100085F010008F0
:100070005F0100085F0100085F0100085F010008E0
:100080005F0100085F0100085F0100085F010008D0
:100090005F0100085F0100085F0100085F010008C0
:1000A0005F0100085D3500085F0100085F0100087E
:1000B0005F0100087D300008013000085F01000882
:1000C0005F0100085F0100085F0100085F01000890
:1000D0005F010008E13300085F0100085F010008CC
:1000E0005F0100085F0100085F0100085F01000870
:1000F0005F0100085F0100085F0100085F01000860
:100100005F0100085F010008C93400085F010008B2
:100110005F0100085F0100085F0100085F0100083F
:100120005F0100085F0100085F0100085F0100082F
:10013000DFF80CD003F01EFC00480047D531000862
:10014000580600200648804706480047FEE7FEE7BD
:10015000FEE7FEE7FEE7FEE7FEE7FEE7FEE7FEE777
:1001600047020008310100080CB500200190009002
:100170006C48006840F480306A49086000BF6948F4
:10018000006800F4003000900198401C0190009835
:1001900018B90198B0F5A06FF1D16248006800F479
:1001A000003010B10120009001E000200090009884
:1001B000012843D15C48006840F010005A490860AB
:1001C0000846006820F0030008600846006840F018
:1001D0000200086053484068524948600846406839
:1001E00048600846406840F48060486008464068BF
:1001F00020F47C1048600846406840F4E8104860ED
:100200000846006840F08070086000BF45480068FC
:1002100000F000700028F9D04248406820F0030048
:10022000404948600846406840F00200486000BF0E
:100230003C48406800F00C000828F9D10CBD10B50E
:10024000FFF792FF10BD10B53648006840F001007E
:1002500034490860084640683449084031494860DC
:1002600008460068324908402E4908600846006880
:1002700020F4802008600846406820F4FE004860B2
:100280004FF41F008860FFF7DAFF4FF00060294944
:10029000086010BD10B5002100200022214B5B68D2
:1002A00003F00C0121B1042906D0082928D107E068
:1002B000214B224C236027E01F4B204C236023E07E
:1002C000184B5B6803F47010164B5B6803F48032C4
:1002D000022303EB904022B9194B4343174C236090
:1002E0000DE0104B5B6803F4003323B1144B434320
:1002F000124C236003E0104B4343104C236003E097
:100300000D4B0E4C236000BF00BF064B5B68C3F370
:1003100003130C4CE15C094B1B68CB40074C23607A
:1003200010BD000000100240002002400000FFF855
:10033000FFFFF6FE08ED00E000127A00000000204A
:1003400000093D000400002031490143314A116099
:10035000704770B5002100230F22C47804B32D4CE0
:10036000246804F4E064C4F5E064210AC1F10403E4
:10037000CA40447804FA03F1847814402143090107
:10038000254C0678A155047804F01F050124AC40E3
:1003900005786D11AD0005F1E025C5F8004109E0D3
:1003A000047804F01F050124AC401C4D067876113A
:1003B00045F8264070BD1A4A0A400243154B1B1FE0
:1003C0001A60704739B1134A121D12680243114B6B
:1003D0001B1D1A6006E00F4A121D126882430D4B66
:1003E0001B1D1A607047042808D14FF0E0210969ED
:1003F00041F004014FF0E022116107E04FF0E021ED
:10040000096921F004014FF0E022116170470000FA
:100410000000FA050CED00E000E400E080E100E0FF
:1004200080FFFF1F01460020FE4A106800F03800E0
:10043000084310607047FB49096821F00801F94A38
:10044000116011460968014311607047F549096858
:1004500021F01001F34A116011460968014311604F
:100460007047F148EF494860F04848607047EE48EF
:10047000EC494860ED4848607047EA48006940F040
:100480008000E84908617047E648006940F0800054
:10049000E449086170470420E249C96801F001019C
:1004A00009B101200EE0DF49C96801F0040109B17A
:1004B000022007E0DB49C96801F0100109B10320FF
:1004C00000E00420704700B502460423FFF7E3FF75
:1004D000034603E0FFF7DFFF0346521E012B01D165
:1004E000002AF7D102B90523184600BD30B50446ED
:1004F00004254FF43020FFF7E6FF0546042D17D101
:10050000C848006940F00200C649086108464461D5
:10051000006940F0400008614FF43020FFF7D3FF3E
:100520000546C048006941F6FD710840BD490861B3
:10053000284630BD10B504244FF43020FFF7C3FF28
:100540000446042C16D1B748006940F00400B549B0
:1005500008610846006940F0400008614FF430200F
:10056000FFF7B1FF0446AF48006941F6FB71084050
:10057000AC490861204610BD00B502460423FFF7D0
:100580008AFF034603E0FFF786FF0346521E012B56
:1005900001D1002AF7D102B90523184600BD10B5D4
:1005A00004244FF43020FFF7E7FF0446042C16D153
:1005B0009C48006940F004009A49086108460069B7
:1005C00040F0400008614FF43020FFF7D5FF0446AB
:1005D0009448006941F6FB71084092490861204641
:1005E00010BD00208F49C96901F0020109B1012045
:1005F00000E00020704730B5A5250424FFF7F1FF87
:1006000000B100254FF43020FFF75DFF0446042CB5
:100610003AD18548834988608448886008460069E3
:1006200040F0200008610846006940F04000086181
:100630004FF43020FFF747FF0446042C1BD17948C4
:10064000006941F6DF710840764908610846006993
:1006500040F01000086176480580E002FFF733FFA4
:100660000446052C10D06F48006941F6EF71084030
:100670006C49086108E0052C06D06A48006941F61B
:10068000EF71084067490861204630BD78B50646DD
:100690000C46042500200090E802FFF714FF0546F1
:1006A000042D24D15F48006940F001005D490861D4
:1006B0003480E802FFF707FF0546042D10D1B01C77
:1006C0000090200C00990880E802FFF7FCFE054628
:1006D0005448006941F6FE7108405249086106E03D
:1006E0005048006941F6FE7108404E4908612846AD
:1006F00078BD70B504460D460426F002FFF7E3FE10
:100700000646042E11D14748006940F001004549D2
:1007100008612580F002FFF7D6FE064641480069D1
:1007200041F6FE7108403F490861304670BD70B522
:1007300005460E460424E002FFF7C5FE0446042CDD
:1007400017D13948374988603848886008460069B9
:1007500040F0100008612E80E002FFF7B4FE04466E
:10076000052C06D02F48006941F6EF7108402D494D
:100770000861204670BD2DE9F04304464FF6FF7630
:100780003746B046B1460425E443E6B2C4F3072732
:10079000C4F307484FEA1469E802FFF794FE0546E0
:1007A000042D49D120481F498860204888600846A8
:1007B000006940F010000861FF2E06D01C48083088
:1007C0000680E802FFF77FFE0546042D08D1FF2FC3
:1007D00006D017480A300780E802FFF774FE054686
:1007E000042D0AD1B8F1FF0F07D011480C30A0F842
:1007F0000080E802FFF767FE0546042D0AD1B9F133
:10080000FF0F07D00A480E30A0F80090E802FFF76B
:100810005AFE0546052D0FD00248006941F6EF71DA
:10082000084007E00020024023016745AB89EFCD77
:1008300000F8FF1F664908612846BDE8F08330B51F
:10084000054604244FF43020FFF73DFE0446042CF7
:1008500041D160485E4988605F4888600846006909
:1008600040F0200008610846006940F0400008613F
:100870004FF43020FFF727FE0446042C22D15448C1
:10088000006941F6DF710840514908610846006976
:1008900040F0100008611DB100205049088002E0BE
:1008A000A5204E4908804FF43020FFF70CFE044687
:1008B000052C10D04648006941F6EF7108404449C4
:1008C000086108E0052C06D04148006941F6DF7157
:1008D00008403F490861204630BDF0B505460E4648
:1008E000174604243B483A4988603B488860E00248
:1008F000FFF7E9FD0446042C19D13548006940F0A2
:1009000010003349086147F0F80030432843334969
:10091000891C0880E002FFF7D6FD0446052C06D0AE
:100920002B48006941F6EF710840294908612046CB
:10093000F0BD2748C069800870472548006A7047A5
:1009400000202349096801F0200109B1012000E0DD
:100950000020704729B11E4A126902431C4B1A61DC
:1009600004E01B4A12698243194B1A617047014621
:100970000020012908D1164AD26902F001020AB109
:10098000012008E0002006E0114AD2680A400AB1BE
:10099000012000E0002070470D49C8607047042026
:1009A0000B49C96801F0010109B101200EE00849B5
:1009B000C96801F0040109B1022007E00449C968CF
:1009C00001F0100109B1032000E00420704700008D
:1009D0000020024023016745AB89EFCD00F8FF1FDF
:1009E00010B50446CC48844208D10121042000F00F
:1009F0004DFB0021042000F049FB46E0C74884423B
:100A000008D10121082000F041FB0021082000F05E
:100A10003DFB3AE0C248844208D10121102000F099
:100A200035FB0021102000F031FB2EE0BD48844250
:100A300008D10121202000F029FB0021202000F016
:100A400025FB22E0B848844208D10121402000F073
:100A50001DFB0021402000F019FB16E0B348844242
:100A600008D10121802000F011FB0021802000F03E
:100A70000DFB0AE0AE48844207D10121801500F049
:100A800005FB0021A01500F001FB10BD10B50121F0
:100A9000084600F0FBFA0021012000F0F7FA10BD33
:100AA0002DE9F04102460025002600200023002405
:100AB000002791F803C00CF00F0591F803C00CF06B
:100AC000100CBCF1000F03D091F802C04CEA0505F0
:100AD00091F800C0BCF1000F31D0146800202BE069
:100AE0004FF0010C0CFA00F3B1F800C00CEA030659
:100AF0009E4220D183004FF00F0C0CFA03F7BC4349
:100B000005FA03FC4CEA040491F803C0BCF1280F79
:100B100006D14FF0010C0CFA00FCC2F814C00AE038
:100B200091F803C0BCF1480F05D14FF0010C0CFA4D
:100B300000FCC2F810C0401C0828D1D31460B1F8E2
:100B400000C0BCF1FF0F34DD546800202EE000F13E
:100B5000080C4FF0010808FA0CF3B1F800C00CEAD9
:100B600003069E4221D183004FF00F0C0CFA03F7CD
:100B7000BC4305FA03FC4CEA040491F803C0BCF141
:100B8000280F05D100F1080C08FA0CF8C2F81480FF
:100B900091F803C0BCF1480F07D100F1080C4FF0E9
:100BA000010808FA0CF8C2F81080401C0828CED3BF
:100BB0005460BDE8F0814FF6FF7101800221817021
:100BC0000421C17070470246002093680B400BB1AE
:100BD000012000E0002070470146886880B270471D
:100BE00002460020D3680B400BB1012000E000203A
:100BF00070470146C86880B2704701617047416123
:100C000070470AB1016100E041617047C1607047FF
:100C10004FF480320A438261816182618269826914
:100C2000704702460020434B18684FF68073184007
:100C300040EA021008433F4B186070473E49C861C4
:100C40007047F0B50A46002300240021002500F07B
:100C50000046B6F1004F02D1364EF16901E0354E43
:100C60007168C0F3034583B200F44016B6F5401F27
:100C700008D121F070612F4E766826F070662D4FF6
:100C80007E6012E000F48016B6F5801F06D10326C0
:100C900006FA05F4A14341F0706106E0460D360105
:100CA00003FA06F6B14341F0706122B1460D3601F8
:100CB00003FA06F6314300F00046B6F1004F02D1C8
:100CC0001C4EF16101E01B4E7160F0BD30B5002299
:100CD0008B071C0F0F2303FA04F2164B08338C10FA
:100CE00053F824309343134C08348D1044F82530C6
:100CF00023468C1053F824308C07240F00FA04F498
:100D000023430C4C08348D1044F8253030BD0A497B
:100D1000DC3108607047000000080140000C014011
:100D2000001001400014014000180140001C014067
:100D30000020014000000140000020420E490860F0
:100D400070470D49486070470B49886070474AF604
:100D5000AA200949086070474CF6CC400649086053
:100D6000704701460020044AD2680A400AB10120B7
:100D700000E000207047000000300040DF480068BD
:100D800040F00100DD49086008464068DC49084041
:100D9000DA49486008460068DA490840D7490860DF
:100DA0000846006820F4802008600846406820F467
:100DB000FE0048604FF41F0088607047CF49096803
:100DC00021F48031CD4A11601146096821F4802157
:100DD0001160B0F5803F03D0B0F5802F0ED106E052
:100DE000C649096841F48031C44A116007E0C3492B
:100DF000096841F4A021C14A116000E000BF00BFB2
:100E0000704710B501460022002300204A11012A34
:100E100002D1BA4C236806E0022A02D1B74C236AF9
:100E200001E0B64C636A01F01F02012494401C40AB
:100E30000CB1012000E0002010BD38B5002000906A
:100E40000024002500BF3120FFF7DBFF0546009896
:100E5000401C00900098B0F5A06F01D0002DF2D09A
:100E60003120FFF7CEFF08B1012400E00024204626
:100E700038BD01460020A14A106820F0F80040EA81
:100E8000C10010607047A04908607047024600200A
:100E90009A4B586820F47C1042EA01031843974BA0
:100EA0005860704798490866704701460020934A89
:100EB000506820F003000843506070478F48406836
:100EC00000F00C007047014600208C4A506820F06A
:100ED000F00008435060704701460020874A506880
:100EE00020F4E06008435060704701460020834AC8
:100EF000506820F4605040EAC1005060704729B14A
:100F00007E4A527A02437D4B5A7204E07B4A527AFF
:100F100082437A4B5A7270477B49D83108607047D8
:100F200001460020754A506820F440400843506054
:100F300070470021714A20321170704A82F82010E7
:100F4000012802D004280AD104E001216B4A203292
:100F5000117005E00521694A2032117000E000BFE0
:100F600000BF70476949086070476449096A0143D6
:100F7000624A11627047654944390860704730B56C
:100F800000210022002400235C4D6D6805F00C0157
:100F900021B1042905D0082923D105E05C4D056065
:100FA00022E05B4D05601FE0544D6D6805F4701242
:100FB000524D6D6805F48034022505EB92421CB950
:100FC000544D554305600BE04C4D6D6805F40035FC
:100FD0001DB1504D5543056002E04D4D5543056030
:100FE00002E04B4D056000BF00BF444D6D6805F049
:100FF000F0010909484D6B5C0568DD4045603F4DD7
:101000006D6805F4E061090A434D6B5C4568DD409D
:1010100085603A4D6D6805F46051C90A3E4D6B5CC0
:101020004568DD40C560354D6D6805F44041890B6C
:101030003A4D6B5CC568B5FBF3F5056130BD29B170
:101040002E4A526902432D4B5A6104E02B4A5269E1
:1010500082432A4B5A61704729B1284A9269024358
:10106000264B9A6104E0254A92698243234B9A6198
:10107000704729B1214AD2690243204BDA6104E06A
:101080001E4AD26982431D4BDA61704729B11B4A5F
:10109000D2680243194BDA6004E0184AD2688243EE
:1010A000164BDA60704729B1144A12690243134B98
:1010B0001A6104E0114A12698243104B1A617047A9
:1010C00012494039086070470F49C86470470B499E
:1010D000C87170470948406A40F08070074948620B
:1010E000704701460020054A92680A400AB1012073
:1010F00000E00020704701498872704700100240EC
:101100000000FFF8FFFFF6FE00004242800442426A
:1011100000127A0000093D00140000202400002085
:1011200010B50446FE48844208D10121C014FFF7DF
:10113000ADFF0021E014FFF7A9FFC4E0B4F1804F38
:1011400008D101210846FFF7AEFF00210120FFF77B
:10115000AAFFB8E0F348844208D101210220FFF73A
:10116000A2FF00210220FFF79EFFACE0EE48844280
:1011700008D101210420FFF796FF00210420FFF78A
:1011800092FFA0E0E948844208D101210820FFF73E
:101190008AFF00210820FFF786FF94E0E44884429C
:1011A00008D101211020FFF77EFF00211020FFF75A
:1011B0007AFF88E0DF48844208D101212020FFF730
:1011C00072FF00212020FFF76EFF7CE0DA488442A6
:1011D00008D101214014FFF759FF00216014FFF7E7
:1011E00055FF70E0D548844209D10121C804FFF7BA
:1011F0004DFF00214FF40020FFF748FF63E0D04887
:10120000844209D101210805FFF740FF00214FF476
:101210008010FFF73BFF56E0CA48844209D1012104
:101220004805FFF733FF00214FF40010FFF72EFFB2
:1012300049E0C548844208D101214020FFF733FF2F
:1012400000214020FFF72FFF3DE0C048844208D135
:1012500001218020FFF727FF00218020FFF723FFD7
:1012600031E0BB48844208D101218015FFF71BFF04
:101270000021A015FFF717FF25E0B648844209D1E9
:1012800001210804FFF702FF00214FF48030FFF72F
:10129000FDFE18E0B048844209D101214804FFF75F
:1012A000F5FE00214FF40030FFF7F0FE0BE0AB48F5
:1012B000844208D101218804FFF7E8FE00214FF4A1
:1012C0008020FFF7E3FE10BD00220288944B984275
:1012D0000ED0994B98420BD0B0F1804F08D0914B73
:1012E000984205D0904B984202D0904B984204D13E
:1012F0004FF68F731A404B881A438D4B984207D094
:101300008C4B984204D04FF6FF431A40CB881A43C7
:1013100002808B8883850B880385814B98420BD094
:10132000854B984208D08B4B984205D08A4B984207
:1013300002D08A4B984201D10B7A03860123838223
:10134000704770B5002400220023058C4FF6FE760E
:1013500035400584028C8388048B4FF68F752C40B2
:10136000B51E2C400D882C43751E2A400D892A433A
:101370004D882A436A4DA8420BD06F4DA84208D031
:10138000744DA84205D0744DA84202D0734DA842B6
:1013900013D14FF6F7752A404D892A434FF6FB7556
:1013A0002A408D882A434FF6FF652B404FF6FF55A4
:1013B0002B408D892B43CD892B4383800483CD889B
:1013C0008586028470BD70B5002400220023058C40
:1013D0004FF6EF7635400584028C8388048B48F6FF
:1013E000FF752C404FF6FF452C400D884FF6FF76D9
:1013F00006EA05252C434FF6DF752A400D8906EADB
:1014000005152A434D8806EA05152A43444DA8428E
:1014100002D0494DA8421DD14FF67F752A404D8913
:101420004FF6FF7606EA05152A434FF6BF752A40A8
:101430008D8806EA05152A434FF6FF352B404FF2FB
:10144000FF752B408D8906EA85052B43CD8906EA79
:1014500085052B4383800483CD880587028470BD76
:1014600070B5002400220023058C4FF6FF6635403E
:101470000584028C8388848B4FF68F752C404FF641
:10148000FC752C400D882C434FF6FF552A400D89E2
:101490004FF6FF7606EA05252A434D8806EA05251C
:1014A0002A431F4DA84202D0234DA8421DD14FF21E
:1014B000FF752A404D894FF6FF7606EA05252A4337
:1014C0004FF6FF352A408D8806EA05252A434EF659
:1014D000FF752B404DF6FF752B408D8906EA0515EB
:1014E0002B43CD8906EA05152B4383808483CD8861
:1014F0008587028470BD70B5002200230024058C0E
:101500004EF6FF7635400584038C8488828B48F63E
:10151000FF752A404FF6FF452A400D8820E0000065
:10152000002C01400004004000080040000C004076
:10153000001000400014004000340140004C014005
:10154000005001400054014000180040001C0040C1
:10155000002000400040014000440140004801409C
:101560004FF6FF7606EA05252A434DF6FF752B4018
:101570000D8906EA05352B434D8806EA05352B43D0
:10158000FA4DA84202D0FA4DA84208D14BF6FF7599
:101590002C408D894FF6FF7606EA85152C43848012
:1015A0008283CD88A0F84050038470BD828B4FF2B7
:1015B000FF331A408283828B4FF6FF7303EA0123C5
:1015C0001A4382837047F0B50C461546002200216D
:1015D0000026078C4EF6FF7C07EA0C070784828BF7
:1015E000018C4FF6FF7707EA043640F6FF473A4092
:1015F0004FF6FF7707EA05273A434FF6FF7707EAEA
:1016000003373A43D94FB8420ED0D94FB8420BD026
:10161000B0F1804F08D0D74FB84205D0D64FB8426E
:1016200002D0D64FB84206D14DF6FF77394046F486
:101630008057394305E047F6FF57394044F4805757
:10164000394382830184F0BD828B4FF6F3731A40D5
:101650008283828B0A4382837047F0B50C4615461D
:10166000002200210026078C4FF6FF6C07EA0C07CA
:101670000784828B018C4FF6FF7707EA04264FF62A
:101680000C773A404FF6FF7707EA03172F433A43A8
:10169000B64FB8420ED0B64FB8420BD0B0F1804F23
:1016A00008D0B44FB84205D0B34FB84202D0B34FC0
:1016B000B84206D14FF6FF57394046F48077394398
:1016C00005E04FF2FF57394044F480773943828375
:1016D0000184F0BD028B4FF2FF331A400283028B6C
:1016E0004FF6FF7303EA01231A4302837047F0B5F4
:1016F0000C461546002200210026078C4FF6EF7C91
:1017000007EA0C070784028B018C4FF6FF7707EA84
:10171000041640F6FF473A404FF6FF7707EA0337D3
:101720003A434FF6FF7707EA05273A438F4FB8420F
:101730000ED08F4FB8420BD0B0F1804F08D08D4FF4
:10174000B84205D08C4FB84202D08C4FB84206D177
:101750004FF6DF77394046F01007394305E04FF682
:101760005F77394044F01007394302830184F0BDAC
:10177000028B4FF6F3731A400283028B0A430283F3
:101780007047F0B50C46154600220021068C4FF636
:10179000FE773E400684028B018C4FF60C76324079
:1017A0007E1C06EA03162E433243704EB0420ED022
:1017B0006F4EB0420BD0B0F1804F08D06D4EB042AA
:1017C00005D06D4EB04202D06C4EB04206D14FF6FD
:1017D000FD76314044F00106314305E04FF6F576E1
:1017E000314044F00106314302830184F0BD70B5FD
:1017F00005460C465D4885420ED05D4885420BD0BB
:10180000B5F1804F08D05B48854205D05A488542E3
:1018100002D05A48854200D100E000BF208850B96C
:101820002389A28861882846FFF7ABFFE188284614
:10183000FFF79EFF25E0208804280AD12389A2888B
:1018400061882846FFF753FFE1882846FFF742FFEB
:1018500017E0208808280AD12389A28861882846B1
:10186000FFF7FBFEE1882846FFF7EEFE09E023893B
:10187000A28861882846FFF7A6FEE1882846FFF780
:1018800095FE70BD2DE9F04105460C460026012766
:10189000608808B9022600E00026A088012801D14E
:1018A000022700E001272088A0B92389A288618847
:1018B0002846FFF766FFE1882846FFF759FF23898E
:1018C0003A4631462846FFF712FFE1882846FFF7DF
:1018D00001FF13E02389A28861882846FFF707FFEC
:1018E000E1882846FFF7F6FE23893A463146284626
:1018F000FFF747FFE1882846FFF73AFFBDE8F08190
:101900000A884B881A438B881A43CB881A430B8961
:101910001A434B891A438B891A43A0F84420704715
:101920004FF6FF71818000210180C18041800172EA
:1019300070470021018041808180C1800181418107
:101940008181C18170470021018041800121818016
:101950000021C18001817047002101804180818088
:10196000C18001814181818170470000002C0140CC
:10197000003401400004004000080040000C00401A
:1019800021B1028842F00102028004E002884FF691
:10199000FE731A400280704731B1B0F8442042F41F
:1019A0000042A0F8442005E0B0F84420C2F30E0243
:1019B000A0F8442070471AB183890B43838102E069
:1019C00083898B43838170478182704741EA020398
:1019D000A0F8483070471AB183890B43838102E035
:1019E00083898B438381704701894FF6F8721140D8
:1019F000018170470A46002101894FF68F73194013
:101A000011430181704730B504460D4629462046F2
:101A1000FFF7F0FF208940F00700208130BD2DE95D
:101A2000F04104460D4616461F46602D06D13B4642
:101A3000012231462046FFF75AFE05E03B460122CF
:101A400031462046FFF79DFE29462046FFF7D2FF8C
:101A5000208940F007002081BDE8F08130B50C46B8
:101A600000210189C9B24FF6FF7505EA0325154328
:101A700025432943018130BD2DE9F04105460E463D
:101A800017469846002443463A4631462846FFF713
:101A9000E5FF2C894FF6F870044044F007044FF638
:101AA0008F70044044F070042C81BDE8F081F0B5E3
:101AB00004460D4616461F463B46324629462046FA
:101AC000FFF7CCFF208940F480402081F0BD0185E4
:101AD000828270470A46002101884FF68F731940B1
:101AE000114301807047F0B50C4615461E46002193
:101AF000002200230189028B038C4FF6F8773940CE
:101B000021434FF6FC473A4040F201173A434FF663
:101B1000DD773B404FF6FF7707EA06172F433B433D
:101B2000018102830384F0BD0A460021018B4FF638
:101B30008F7319401143018370470A460021018BBE
:101B400048F6FF7319404FF6FF7303EA0223194367
:101B5000018370470A460021818B4FF68F7319402D
:101B60001143818370470A460021818B48F6FF7339
:101B700019404FF6FF7303EA02231943818370472C
:101B800021B1028842F08002028004E002884FF610
:101B90007F731A400280704721B1828842F00402AC
:101BA000828004E082884FF6FB731A40828070477F
:101BB00021B1828842F00802828004E082884FF6D8
:101BC000F7731A408280704721B1828842F0010287
:101BD000828004E082884FF6FE731A40828070474C
:101BE0000A460021018B4FF6F77319401143018318
:101BF00070470A460021018B4FF2FF7319404FF6E0
:101C0000FF7303EA02231943018370470A46002148
:101C1000818B4FF6F77319401143818370470A4651
:101C20000021818B4FF2FF7319404FF6FF7303EAD7
:101C300002231943818370470A460021018B4FF626
:101C4000FB7319401143018370470A460021018B41
:101C50004FF6FF3319404FF6FF7303EA022319438F
:101C6000018370470A460021818B4FF6FB731940B0
:101C70001143818370470A460021818B4FF6FF3361
:101C800019404FF6FF7303EA02231943818370471B
:101C90000A460021018B4FF67F73194011430183DF
:101CA00070470A460021018BC1F30E014FF6FF7306
:101CB00003EA02231943018370470A460021818BFE
:101CC0004FF67F7319401143818370470A46002104
:101CD000818BC1F30E014FF6FF7303EA0223194310
:101CE000818370470A460021018C4FF6FD7319402D
:101CF0001143018470470A460021018C4FF6F773A7
:101D000019401143018470470A460021018C4FF6A7
:101D1000DF7319404FF6FF7303EA0213194301847E
:101D200070470A460021018C4FF67F7319404FF629
:101D3000FF7303EA02131943018470470A46002126
:101D4000018C4FF6FF5319404FF6FF7303EA02234D
:101D50001943018470470A460021018C4FF2FF733A
:101D600019404FF6FF7303EA0223194301847047B9
:101D70000A460021018C4DF6FF7319404FF6FF73A0
:101D800003EA023319430184704730B5002301246C
:101D90008C40A3B2048C9C430484048C02FA01F5A9
:101DA000ADB22C43048430BD30B5002304248C40F4
:101DB000A3B2048C9C430484048C02FA01F5ADB2F6
:101DC0002C43048430BD70B503460020002418461F
:101DD000183001258D40ACB21D8CA5431D8409B17E
:101DE000082909D100EB6100056825F07005056040
:101DF0000568154305600EE00D1FC5F34E05284428
:101E0000056825F4E045056005684FF6FF7606EAAB
:101E100002263543056070BD21B1028842F00202FE
:101E2000028004E002884FF6FD731A40028070477A
:101E300021B1028842F00402028004E002884FF6D9
:101E4000FB731A400280704721B1828842F0800201
:101E5000828004E082884FF67F731A408280704748
:101E600002884FF6F7731A40028002880A43028004
:101E7000704782884FF68F731A40828082880A43A7
:101E80008280704702894FF6F8731A4002810289F6
:101E90000A430281704702894FF67F731A4002811C
:101EA00002890A43028170478184704781857047A7
:101EB000818670470187704781877047A0F840107E
:101EC000704702884FF6FF431A40028002880A4397
:101ED000028070470146888E70470146088F704720
:101EE0000146888F70470146B1F8400070470146AF
:101EF000888C70470146088D704702460020138A7F
:101F00000B400BB1012000E000207047CA43028261
:101F1000704730B50246002000230024158A05EAE8
:101F20000103958905EA010413B10CB1012000E019
:101F3000002030BDCA4302827047000010B504463D
:101F4000FB48844209D101218803FFF79FF8002153
:101F50004FF48040FFF79AF832E0F648844209D106
:101F600001214804FFF79FF800214FF40030FFF7EC
:101F70009AF825E0F048844209D101218804FFF74E
:101F800092F800214FF48020FFF78DF818E0EB481D
:101F9000844209D10121C804FFF785F800214FF4DC
:101FA0000020FFF780F80BE0E548844208D10121CA
:101FB0000805FFF778F800214FF48010FFF773F859
:101FC00010BD2DE9F04786B005460E460024A24616
:101FD00000BFA1460027B08900B100BF2F462C8A60
:101FE0004CF6FF700440F08804432C82AC894EF616
:101FF000F3100440B08831890843718908430443D1
:10200000AC81AC8A4FF6FF400440B0890443AC82F7
:1020100001A8FEF7B4FFC648874202D1DDF810A040
:1020200001E0DDF80CA0A88900F4004040B10AEB03
:10203000CA0000EB0A1031684900B0FBF1F807E074
:102040000AEBCA0000EB0A1031688900B0FBF1F816
:102050006420B8FBF0F004012009642101FB108921
:10206000A88900F4004040B1322000EBC900B0FB69
:10207000F1F000F00700044308E0322000EB091003
:102080006421B0FBF1F000F00F0004432C8106B096
:10209000BDE8F0874FF41651016000218180C180B6
:1020A00001810C21418100218181704710B50246D8
:1020B0000020108A4FF2FF0318400B884C882343FE
:1020C0008C882343CC8823431843108210BD002101
:1020D000018041808180C180704721B1828942F4B2
:1020E0000052828104E082894DF6FF731A4082819A
:1020F0007047F0B50346002400260025002040F676
:102100006A17B94200D100BF1846C1F3421401F06A
:102110001F06012707FA06F5012C01D10C3004E057
:10212000022C01D1103000E014301AB107682F439F
:10213000076002E00768AF430760F0BD1AB1838A09
:102140000B43838202E0838A8B4383827047028A37
:102150004FF6F0731A400282028A0A4302827047E5
:1021600082894FF2FF731A40828182890A438281F9
:10217000704721B1828942F00202828104E08289A3
:102180004FF6FD731A4082817047028A4FF6DF7363
:102190001A400282028A0A430282704721B1028AEF
:1021A00042F48042028204E0028A4BF6FF731A4036
:1021B00002827047C1F30802828070470146888816
:1021C000C0F308007047818941F0010181817047A7
:1021D000028BD2B20283028B42EA01220283704751
:1021E000028B02F47F420283028B0A430283704710
:1021F00021B1828A42F02002828204E0828A4FF674
:10220000DF731A408282704721B1828A42F0100245
:10221000828204E0828A4FF6EF731A40828270470E
:1022200021B1828A42F00802828204E0828A4FF65B
:10223000F7731A408282704721B1828942F40042CA
:10224000828103E08289C2F30E028281704721B14C
:10225000828A42F40062828204E0828A4FF2FF7333
:102260001A4082827047828A4FF6FB731A4082823C
:10227000828A0A438282704721B1828A42F0020236
:10228000828204E0828A4FF6FD731A408282704790
:1022900002460020B1F5007F00D100BF13880B403B
:1022A0000BB1012000E00020704701F40072B2F58C
:1022B000007F00D100BFCA430280704770B502465C
:1022C000002400230025002040F66A16B14200D108
:1022D00000BFC1F3421501F01F03012606FA03F304
:1022E000012D02D19689334006E0022D02D1168AD3
:1022F000334001E0968A33400C12012606FA04F4BA
:102300001688344013B10CB1012000E0002070BDEC
:1023100010B50022002340F66A14A14200D100BF8C
:102320000A1201249440A3B2DC43048010BD0000D3
:10233000003801400044004000480040004C00408C
:10234000005000404FF0E021096921F004014FF0F6
:10235000E0221161C21700EB5272C2F3C702404B78
:102360001A701946097801EB4102C2EBC1114FF610
:10237000FF7202EAC1013B4A118070470146394AA7
:1023800012884A434FF0E0235A6100229A610122E9
:102390001A6100BF4FF0E022106900F001021AB18B
:1023A00000F48032002AF5D000224FF0E0231A61B9
:1023B0009A61704701462A4A12784A434FF0E02357
:1023C0005A6100229A6101221A6100BF4FF0E02297
:1023D000106900F001021AB100F48032002AF5D031
:1023E00000224FF0E0231A619A61704730B51E4811
:1023F000006842F21072B0FBF2F1B1F1807F00D3BD
:102400001DE021F07F40401E4FF0E0225061501748
:102410000F22002807DA13071D0E144B00F00F04DB
:10242000241F1D5503E013071C0E114B1C5400BF45
:1024300000204FF0E02290610720106100BF30BD06
:1024400010B50C480068401C0A490860084600683E
:10245000592803DD00200860FEF779FC10BD00005C
:10246000280000202A0000200000002018ED00E0D5
:1024700000E400E02C00002008B500214FF00060CF
:10248000FDF799FF4FF4C060FDF75EFF25208DF842
:10249000000001208DF8010003208DF802000120CA
:1024A0008DF803006846FDF754FF1D208DF80000ED
:1024B00000208DF8010001208DF802008DF8030046
:1024C0006846FDF746FF1E208DF8000000208DF8BD
:1024D00001008DF8020001208DF803006846FDF729
:1024E00038FF32208DF8000000208DF80100022016
:1024F0008DF8020001208DF803006846FDF729FFE2
:1025000019208DF8000001208DF8010004208DF8BD
:10251000020001208DF803006846FDF71AFF08BD90
:1025200010B5FEF72BFC4FF48030FEF747FCFEF7AA
:1025300084FC0446012C24D11020FDF787FF0220E3
:10254000FDF770FF0020FEF7BEFC0020FEF7CDFC7B
:10255000A002FEF7C1FC4FF4E0112004FEF796FC48
:102560000120FEF79FFC00BF3920FEF74AFC00283F
:10257000FAD00220FEF799FC00BFFEF79FFC082866
:10258000FBD110BD08B501215C20FEF765FD4FF4BD
:102590004C60ADF8000010208DF8030003208DF88A
:1025A000020069460148FEF77BFA08BD00100140B1
:1025B00000B585B001210520FEF74EFD01218803FD
:1025C000FEF74AFD2D48FFF7B9FC4FF40070ADF857
:1025D000100018208DF8130003208DF8120004A9B4
:1025E0002748FEF75DFA4FF48060ADF810004820F0
:1025F0008DF8130004A92248FEF752FA4FF4E13097
:1026000000900020ADF80400ADF80600ADF8080019
:10261000ADF80C000C20ADF80A0069461748FFF72A
:10262000D0FC012240F225511448FFF762FD012140
:102630001248FFF752FD40211048FFF736FE05B063
:1026400000BD70B504460D46E1B20C48FFF7B2FD7F
:1026500000BF80210948FFF71BFE0028F9D0204663
:1026600070BD10B5044600BF20210448FFF710FEDE
:102670000028F9D00148FFF7A1FD10BD0038014046
:10268000000801402DE9F047044689469B48007840
:1026900018B39B4801689B48006801F014F807468E
:1026A00099480168384601F00EF8054697480168D8
:1026B0009748006801F007F80646294601F035F80A
:1026C00094490860944801689248006801F02DF828
:1026D000924908600020894908704946204600F068
:1026E0009AFF05464FF07C5100F0EDFF8C490860E1
:1026F0004946204600F0E1FF8A49086000218A48E7
:10270000006801F0C5F80ED200218848006801F089
:10271000BFF808D28248006885490860814800688F
:102720008449086051E000217F48006801F0A6F864
:1027300012D200217D48006801F0A0F80CD2784840
:10274000006880F000407A4908607648006880F0B0
:1027500000407849086038E000217348006801F0C3
:102760008DF814D200217148006801F091F80ED262
:102770006C48006880F000406D4908606848016856
:102780004FF0404000F09FFF6A4908601DE00021C3
:102790006548006801F07CF812D2002163480068A7
:1027A00001F06CF80CD25F480068614908605C4831
:1027B00001684FF0804000F086FF5E49086004E049
:1027C00000205B4908605B4908605448016859482B
:1027D000006800F078FF58490860084601685748CB
:1027E000006800F018FF55490860534801684FF031
:1027F0007C5000F068FF054650480168284600F00C
:102800000AFF4F4908600846006801F007F80746CC
:1028100001F0F0FE054601F014F84A490860484806
:10282000006800F0FBFF074601F096FE054601F048
:1028300008F845490860084601683D48006800F00E
:1028400042FF064633480168304600F03CFF05462B
:102850003E480168284600F0DEFE3C4908603948E1
:1028600001683348006800F02EFF064629480168D9
:10287000304600F028FF054635480168284600F03C
:10288000CAFE33490860234801682948006800F0FF
:102890001AFF05462F480168284600F046FF2E49DA
:1028A00008602C4801682448006800F03EFF2B496E
:1028B0000860164801682148006800F0E9FF08D266
:1028C000274801681D48006800F0F7FE1B490860B2
:1028D00011E00E48006880F000451848016828465D
:1028E00000F0D6FF07D21E4801681448006800F0C7
:1028F00092FE12490860BDE8F087000094000020B5
:1029000048000020680000204C00002058000020F3
:10291000500000208000002044000020840000209F
:10292000880000208C0000202001002024010020CD
:10293000780000207C0000206C000020380000207F
:102940009000002070000020740000203000002063
:1029500034000020640000203C00002040000020E3
:102960006000002000B589B001210846FEF781FB18
:1029700001210420FEF770FB0620ADF8200018208E
:102980008DF8230003208DF8220008A94848FEF79F
:1029900087F840F60F60ADF818000020ADF814007D
:1029A000ADF81A00ADF8160005A94FF08040FEF70B
:1029B0008BFC6020ADF804000020ADF80C00012075
:1029C000ADF806000020ADF80A0001A94FF08040E4
:1029D000FEF746FD0821C806FFF718F96020ADF89C
:1029E00004000020ADF80C000120ADF80600002026
:1029F000ADF80A0001A94FF08040FEF7E4FC082181
:102A0000C806FFF7F6F801218807FFF7B9F801219A
:102A10008807FEF7B5FF09B000BD0EB501210820FB
:102A2000FEF727FB4FF47A60ADF804000820ADF8FC
:102A300000000020ADF80600ADF8020069461D4810
:102A4000FEF742FC01211B48FFF760FA0122114604
:102A50001848FEF7B0FF01211648FEF791FF0EBDA2
:102A60000EB50121C802FEF7F7FA1348FEF758FB2E
:102A70004FF4FA70ADF8040041F61F40ADF80000C5
:102A80000020ADF80600ADF8020069460A48FEF7DE
:102A90001BFC01210848FFF739FA012211460648BC
:102AA000FEF789FF01210448FEF76AFF0EBD000012
:102AB00000080140000C0040002C014010B5044605
:102AC00042F2107084420FD940214C48FEF795F82D
:102AD00080214A48FEF793F8A4F51C50103800F006
:102AE0006BFE474908621EE042F2107084420FD22A
:102AF00080214248FEF781F840214048FEF77FF8E8
:102B000042F21071081B00F057FE3D4908620AE0CE
:102B100040213A48FEF771F880213848FEF76DF8F9
:102B200000203749086210BD10B5044642F210700B
:102B3000844211D94FF480613048FEF75EF84FF4BB
:102B400000612E48FEF75BF8A4F51C50103800F029
:102B500033FE2C49086222E042F21070844211D206
:102B60004FF400612548FEF748F84FF48061234890
:102B7000FEF745F842F21071081B00F01DFE2149D6
:102B800008620CE04FF480611C48FEF736F84FF401
:102B900000611A48FEF731F800201A49086210BD9A
:102BA0002DE9F05F04460D464FF07E56304600F0AA
:102BB00008FE834600F0F7FD8246214600F083FDC3
:102BC000814600F0FEFD0746304600F0FAFD8346E0
:102BD00000F0E9FD8246294600F075FD814600F0CF
:102BE000F0FD804642F210703844FFF79DFF42F23C
:102BF00010704044FFF762FFBDE8F09F00100140F5
:102C0000C0000020E400002000B587B001210420AE
:102C1000FEF72FFA01210820FEF71EFA6846FDF79D
:102C2000CAFFC020ADF8000004208DF80300032087
:102C30008DF802006946FB48FDF732FFFA48FEF7BF
:102C40006FFA04A8FEF76CFE0020ADF8100040F209
:102C50001760ADF814000020ADF81600ADF81200B2
:102C600004A9F148FEF730FB00231A460321EE4881
:102C7000FEF739FF01A8FEF766FE0620ADF80C004E
:102C800001A9E948FEF7B3FD0121E748FFF73EF946
:102C900001221146E448FEF78EFE0121E248FEF7CC
:102CA0006FFE07B000BD00B587B001210220FEF71E
:102CB000E0F901210420FEF7CFF96846FDF77BFF1C
:102CC000C020ADF8000004208DF8030003208DF82B
:102CD00002006946D548FDF7E3FED548FEF720FA25
:102CE00004A8FEF71DFE0020ADF8100040F21760AA
:102CF000ADF814000020ADF81600ADF8120004A9DC
:102D0000CB48FEF7E1FA00231A460321C848FEF734
:102D1000EAFE01A8FEF717FE0620ADF80C0001A997
:102D2000C348FEF764FD0121C148FFF7EFF8012217
:102D30001146BF48FEF73FFE0121BD48FEF720FEC9
:102D400007B000BD70B5BB48007830BBBA480288F8
:102D5000B548243004880020B74E3080B248243073
:102D6000008803B2B048008800F01000102809D194
:102D7000B2480068201A02EB821606EB4606C0EB4A
:102D8000C60108E0AD480068201A02EB821606EB87
:102D9000460600EBC6010D4609E00020A54E307046
:102DA0000025A54E3080A0482430008803B2A348F7
:102DB000036028B270BD70B5A148007830BBA1484F
:102DC00002889B482430048800209E4E308098481A
:102DD0002430008803B29648008800F010001028C4
:102DE00009D199480068201A02EB821606EB4606C4
:102DF000C0EBC60108E094480068201A02EB821676
:102E000006EB460600EBC6010D4609E000208C4E9D
:102E1000307000258B4E308085482430008803B206
:102E20008948036028B270BD002007E00021874A6E
:102E300042F82010864A42F82010401C0328F5D39F
:102E400001217C4A11707E4A117070472DE9F05FB4
:102E500000210C460D460E460F468A460DE07B4883
:102E600050F82A00861947EBE077794850F82A1085
:102E70000C1945EBE1750AF1010ABAF1030FEED323
:102E8000032200232046294600F094FB04460D4609
:102E9000032200233046394600F08CFB06460F46DD
:102EA000C8224FF0000C2346A3FB023B05FB02B1F6
:102EB00004FB0C103C220021A3FB028B00FB02B0A0
:102EC00003FB01094FF4C3620B464046494600F03C
:102ED00071FB0446C82300213046A0FB03CB07FB4F
:102EE00003B206FB01203C22ACFB028B00FB02B0CC
:102EF0000CFB01094FF4C3620B464046494600F003
:102F000059FB064630B25349086020B25249086066
:102F100050480068514908604F48006850490860AF
:102F2000BDE8F09F70B54E4800684C490968401AEA
:102F30004C4908604748006800F03EFC05462946B9
:102F4000494800F0B1F8044648480168204600F0BE
:102F500062FB4649086046494448006800F098FC16
:102F600002D243484149086000214048006800F00F
:102F700085FC02D200203D4908603C48006800F012
:102F800039FC4FF08041888770BD70B533480068C8
:102F900033490968401A334908602F48006800F037
:102FA0000BFC05462946334800F07EF804463248BB
:102FB0000168204600F02FFB2F4908602C492E485D
:102FC000006800F065FC02D229482B490860002106
:102FD0002948006800F052FC02D20020264908600F
:102FE0002548006800F006FC4FF08041088770BD5E
:102FF00010B5FFF709FEFFF756FEFFF715FF10BDEE
:1030000010B501210848FEF781FF0B4800884FF6F4
:10301000FF71884204D008480088401C0649088097
:1030200010BD0000000C01400008004000080140F5
:1030300000040040BC000020AE0000200801002079
:10304000BD000020AC0000200C0100205C0100202D
:10305000680100209C000020A0000020A4000020A7
:10306000A8000020B8000020E4000020B0000020EC
:1030700000006145C0000020B400002010B501210F
:103080000748FEF743FF074800884FF6FF71884264
:1030900004D004480088401C0249088010BD00008C
:1030A00000040040AC0000202DE9F04704460F4624
:1030B000002000F078FB80463946206A00F0FDFAD7
:1030C0008246414600F0A7FAE060E168206800F01F
:1030D000FAFA8146A06900F066FB8246E16800F0DA
:1030E0009AFA804600F06DFBA0612149E069086012
:1030F00020491F48006800F0CBFB05D31E491C483F
:10310000006800F0BBFB01D200206060A06900F005
:103110004AFB8046616800F0D6FA0546D4E903010F
:1031200000F0CBFA8046A16800F0CDFA0646E068D0
:1031300020612946484600F06EFA8046314600F08C
:103140006AFAE0610D49E069096800F0A1FB02D26A
:103150000A480068E0610A49E069096800F08EFBEE
:1031600002D207480068E061E069BDE8F08700002E
:10317000180100200000A0400000A0C010010020A5
:103180001401002008B501214820FDF765FF20202B
:10319000ADF8000010208DF8030003208DF8020028
:1031A00069467848FDF77CFC20217648FDF725FD2F
:1031B0002020ADF8000010208DF8030003208DF8CA
:1031C000020069467048FDF76BFC20216E48FDF750
:1031D00014FD08BD0025002600240027FFF7A0F9F4
:1031E000FFF74AF9FFF7CEF9FFF7E2F9FFF7BAFB6D
:1031F000FFF7FEFEFFF711FCFFF732FCFFF7C2FFFF
:10320000BFE06248007800F00100002854D0604818
:10321000006860490860604800686049086060486C
:10322000006860490860604800686049086060485C
:10323000006860490860002419E05648005D5E4956
:1032400008555648015D5C4A201D11545548015DE2
:1032500004F1080011545548015D04F10C001154AB
:103260005448015D04F110001154601CC4B2042CD8
:10327000E3DB0A2050490875002615E040214F483D
:10328000FFF713F84C48815D4C48FEF793FF20216F
:103290003D48FDF7B4FC00BF40214848FEF7F8FF69
:1032A0000028F9D0701CC6B2152EE7DB374800782D
:1032B00000F0FE00354908703448007800F0020044
:1032C00058B13F4801683F480068FFF7DBF92F48D5
:1032D000007800F0FD002D4908702C48007800F0BF
:1032E000080028B340213548FEF7DFFF00270CE037
:1032F00000213248FEF75EFF00BF40212F48FEF755
:10330000C7FF0028F9D0781CC7B2032FF0DB0A21D1
:103310002A48FEF74FFF00BF40212848FEF7B8FFBC
:103320000028F9D01948007800F0F7001749087014
:103330002548008800F40040E8B120211148FDF73D
:103340005EFC00250AE02148405D214948551F499F
:10335000281D085C1F494855681CC5B2042DF2DBC6
:103360001B4800681C4908601A4800681B4908602F
:10337000002015490880174A1168154A1068FFF7A0
:103380000FFC3EE700180140000C0140280100201E
:1033900030000020340100203400002038010020DB
:1033A000380000203C0100203C00002040010020AB
:1033B000400000204401002074010020003801403A
:1033C0004C01002050010020540100208901002000
:1033D000300100202C0100202001002024010020C9
:1033E00010B540F225516648FEF768FF00286AD004
:1033F0006348FEF7E3FE634908706348008800F401
:10340000004000285FD16048008800F48040A0B3ED
:10341000084600780A2826D15B48007800F03F0073
:10342000082811D15848008840F4004056490880C7
:103430005648007840F00400544908700846007867
:1034400000F0F70008703EE05048007840F00800B7
:103450004E4908700846007800F0FB000870002014
:10346000494908802FE04948007840F00800474962
:10347000087000204449088025E0FFE741480078B3
:103480000D2806D14048008840F480403E4908801D
:1034900019E03C4800783C490988C1F30D013C4AD9
:1034A000505439480088401C374908800846008835
:1034B000C72808DD3548007840F008003349087017
:1034C00000203149088010BD70B501213148FEF758
:1034D00020FD002841D03048008828B12E480088BF
:1034E000401E2D49088034E009202B490880FFF751
:1034F00029FC0446FFF75FFC0546284600F053F917
:1035000026490860204600F04EF9254908601F480A
:10351000007840F002001D490870224822490978CD
:1035200040F8214021482049097840F821501E48A0
:103530000078401C1C49087008460078032801DB0D
:1035400000200870FFF782FCFFF7ECFCFFF71DFD81
:1035500000BF01210F48FEF7EDFC70BD10B5012141
:103560001348FEF7D6FC48B10848007840F0010047
:103570000649087001210E48FEF7DCFC10BD000072
:10358000003801405601002054010020280100208D
:1035900089010020000C0040480100204C0100205F
:1035A000500100205C0100204A0100206801002039
:1035B000002C01402DE9F0410024061B254671F145
:1035C000000605DA01240027D0EB070067EB0101B4
:1035D000161E73F1000605DA0027D2EB070201255B
:1035E00067EB030300F05EF986460E4617469C46DD
:1035F000AC4204D00025D0EB050E65EB010624B1EA
:103600000020D2EB000760EB030C704631463A46CF
:103610006346BDE8F081F0B480EA0102D40F4200B5
:10362000B2EB410F02D20246084611464A0042D090
:10363000C30DDDB2C1F3C752AD1A202D35DAC1F387
:10364000160141F4000204B15242C5F1200602FA0B
:1036500006F12A411044B3EBD05F23D0C4B1012D51
:10366000A0EBC35009DCF0BC4FF0004202EAC352A9
:10367000DBB200F5000000F04FB9400000F18070AF
:1036800000EBC350A0F1807040EAD170490009E01E
:10369000490841EAC071A0EBC35000F500004008A2
:1036A00000EBC350F0BC00F02EB96142012202EBE6
:1036B0004101001BF6E7F0BC704781F00041AAE72A
:1036C00080F00040A7E780EA010210B502F0004355
:1036D000400022D04A001FD0010E01EB1261C0F35E
:1036E0005600C2F3560240F4000042F40002A0FB70
:1036F000022000047F39140400D0401C50EA12401C
:1037000001D44000491EC2B20C0604EBD010401C8C
:103710004008802A02D003E0002010BD20F0010004
:10372000002900DA0020184310BD30B480EA0102FD
:1037300002F0004530F0004221F0004013D090B17B
:10374000C30DD40DC2F31601C0F31600E41A41F400
:10375000000140F400027D34914201D3641C00E07A
:103760004900002C02DA30BC002070474FF4000002
:103770000023914201D3891A034340084FEA4101D3
:10378000F7D151B1914202D14FF0004105E002D290
:103790004FF0010101E06FF0010103EBC450284438
:1037A00030BC00F0B0B8C10F80EAE0700844CA072E
:1037B0009623002100F0B0B896230022114600F0B5
:1037C000ABB800F0004220F00040C10DC0F316007D
:1037D00040F400007F2901DA00207047962903DCBD
:1037E000C1F19601C84001E096398840002AF4D022
:1037F0004042704720F00040C10DC0F3160040F475
:1038000000007F2901DA00207047962903DCC1F10E
:103810009601C840704796398840704700F00042D2
:1038200030F000400AD0C10D01F56071C0F3160000
:1038300042EA0151C2084007114370470020014687
:10384000704701F0004330B421F0004150EA01021A
:1038500006D00A0DA2F56072C1F31301002A02DC42
:1038600030BC00207047440F44EAC104C100E01896
:1038700030BC00EBC25000F046B80000002801DB6D
:10388000C0F10040002901DBC1F1004181427047D5
:10389000002801DBC0F10040002901DBC1F100413B
:1038A000884270472DE9F05F0546002092469B460E
:1038B00088460646814640241BE028464146474646
:1038C000224600F078F853465A46C01A914110D368
:1038D00011461846224600F05FF82D1A67EB0108E2
:1038E0004F4622460120002100F056F817EB000950
:1038F0004E41201EA4F10104DFDC484631462A4631
:103900004346BDE8F09F0029A8BF7047401C49000E
:1039100008BF20F00100704710B4B0FA80FC00FA34
:103920000CF050EA010404BF10BC704749B1CCF15F
:10393000200421FA04F411FA0CF118BF01212143EB
:103940000843A3EB0C01CB1D4FEA00614FEA1020A6
:1039500042BF002010BC704700EBC3501044002948
:10396000A4BF10BC7047401C490008BF20F00100F4
:1039700010BC7047064C074D06E0E06840F00103BC
:1039800094E8070098471034AC42F6D3FCF7D4FB18
:10399000B8470008D8470008202A04DB203A00FA7C
:1039A00002F1002070479140C2F1200320FA03F396
:1039B000194390407047202A04DB203A21FA02F094
:1039C0000021704721FA02F3D040C2F12002914059
:1039D0000843194670472DE9FE4F804681EA0300EF
:1039E000C00F0C46009021F0004123F00045B8EBD9
:1039F0000200A94105D24046214690461C460B468E
:103A0000024623F00040104347D0270DC7F30A00B9
:103A1000C3F30A510290401A019040286BDAC3F3B5
:103A2000130040F4801B0098924620B10023D2EB93
:103A3000030A63EB0B0B01985946C0F14002504654
:103A4000FFF7AAFF06460D4650465946019A00F078
:103A50009EF910EB08006141002487EA115284EAC4
:103A6000E7731A4340D0009A62B3019A012A4FEAE1
:103A7000075215DC001B61EB02014FF0004202EA25
:103A80000752CDE90042001C41F5801132462B4619
:103A900000F09EF903B0BDE8F08F40462146F9E7FB
:103AA000001B61EB0201001C41F5801300185B4113
:103AB0002018A2F5001747EB030140EAD570B619AC
:103AC0006D4111E06D084FEA360645EAC0754FEAD0
:103AD0000752001B61EB0201001C41F580114908EF
:103AE0004FEA30000019514132462B4603B0BDE881
:103AF000F04F00F05EB90098012240000023D0EBA7
:103B0000020263EBE073009821464FEAE074B8EBE1
:103B1000000061EB0401E9E783F000435BE781F01B
:103B2000004158E72DE9FE4F81EA030404F0004408
:103B300021F0004100944FF0000B23F0004350EAC5
:103B400001045ED052EA03045BD0C3F30A54C1F30C
:103B50000A552C44A4F2F3340194A0FB0254C1F39F
:103B6000130141F48011C3F3130343F4801301FBE9
:103B7000024400FB034E840A970A44EA815447EA50
:103B80008357A4FB076802958D0A05FB07854FEA5A
:103B9000932C04FB0C542705029D4FEA065847EA74
:103BA0001637B5EB08056EEB070C870E920E47EA49
:103BB000811742EA8312A7FB0201B6EB0B0164EB0B
:103BC00000042B0D43EA0C335E1844EB1C50DA461C
:103BD0005146E7FB0201C5F313044FEA0B3343EAF6
:103BE00014534FEA0432019C43EA0603A4F10C0487
:103BF0000294009CCDE900B400F0EAF803B0BDE8FF
:103C0000F08F00200146F9E72DE9F04D81EA030429
:103C100004F0004B21F0004514464FF0000A23F059
:103C2000004150EA050220D054EA01021DD0C5F33C
:103C30000A570246C5F31303C1F31300C1F30A5632
:103C400040F4801543F48013A7EB0608101BD646FA
:103C500008F2FD3873EB050002D308F1010801E01A
:103C600092185B41B8F1000F03DA00200146BDE86D
:103C7000F08D00204FF48011064684460EE0171B9D
:103C800073EB050705D3121B63EB050306434CEAF0
:103C9000010C49084FEA300092185B4150EA0107D5
:103CA000EDD152EA030012D082EA040083EA050152
:103CB000084305D0101BAB4106D20122002306E0C9
:103CC00000224FF0004302E06FF0010253101AEBA4
:103CD00006004CEB085110EB0A0041EB0B01BDE86C
:103CE000F04D00F066B870B521F0004303430CD0EE
:103CF000C1F30A550024D5EB040564EB0403D61781
:103D0000AD1AB34102DB0020014670BD201841EB23
:103D1000025170BD0EB5C10F80EAE0700844CA07B9
:103D2000002140F233438DE80E000A460B4600F0B6
:103D30004FF803B000BD0EB540F2334102910021AF
:103D4000CDE900110A460B4600F042F803B000BD71
:103D500070B5C1F30A5201F000450024C1F313010C
:103D600040F2FF3341F480119A4201DA002070BD25
:103D700040F233439A42A2F2334203DC5242FFF74D
:103D80001AFE00E090402C43F1D0404270BD202A42
:103D900006DBCB17203A41FA02F043EAE07306E073
:103DA00041FA02F3D040C2F1200291400843194683
:103DB000704710B5141E73F1000408DA401C41F17D
:103DC000000192185B411A4301D120F0010010BD9F
:103DD0002DE9F04D92469B4611B1B1FA81F202E015
:103DE000B0FA80F220329046FFF7D6FD04460F4627
:103DF00040EA0A0041EA0B0153465A46084313D0F1
:103E0000114653EA010019D0C8F140025046FFF7AD
:103E1000D2FD05460E46504659464246FFF7BCFDC8
:103E2000084305D0012004E020463946BDE8F08D66
:103E30000020054346EAE0762C4337430A986305A1
:103E4000E40AA0EB08000022FD0A44EA47540A30C5
:103E500002D500200146E9E7010510196941DDE9B5
:103E6000084500196941BDE8F04DA2E770B58C180E
:103E700010F8015B15F0070301D110F8013B2A117E
:103E800006D110F8012B03E010F8016B01F8016B6B
:103E90005B1EF9D12B0705D40023521E0DD401F867
:103EA000013BFAE710F8013BCB1A921C03E013F830
:103EB000015B01F8015B521EF9D5A142D8D3002065
:103EC00070BD490050EAC12018BF04204A0D18BF38
:103ED00040F0010040F2FF72B2EB515F08BF40F0CA
:103EE0000200012808BF0520704700002DE9F74FA8
:103EF000144694B00021C4E902111599079121F0EC
:103F00000045C9498D4206DC1599C4E9000117B086
:103F10000020BDE8F08FC549DFF814A3A9423CDDBD
:103F20000799C44E0029C44FC44A1599534619DD58
:103F3000FFF7F2FD554506D0C14AC24BFFF7ECFD35
:103F4000C4E900010AE04FF0D352BE4BFFF7E4FD95
:103F500032463B46FFF7E0FDC4E9000117B00120FF
:103F6000BDE8F08FFFF737FD554506D0B44AB54B95
:103F7000FFF731FDC4E900010AE04FF0D352B14B25
:103F8000FFF729FD32463B46FFF725FDC4E9000156
:103F900017B04FF0FF30BDE8F08FAB49A94215993B
:103FA00078DB21F0004183468846A84AA84BFFF7FA
:103FB000B9FD0022A74BFFF70EFDFFF7C9FE0990E0
:103FC000FFF7A8FE06460F469C4A5346FFF7AAFD98
:103FD00043465A46FFF7A3FD80468A46984A994BC6
:103FE00030463946FFF79EFD2A0D01250B924246C9
:103FF0005346FFF794FD032DC4E9000139D00B9817
:10400000C1F30A51401A05EB45111139814230DAEA
:104010009148C346784400EB0510CDF80CA00C90F5
:10402000D0E9002330463946FFF77CFD02460B46B7
:104030000491069058460399FFF76EFD80468A4624
:1040400002460B4658460399FFF766FD049B069A05
:10405000FFF762FD83460C9803913946D0E90223AD
:104060003046FFF75FFD5A46039BFFF755FD6D1C79
:10407000BDE707980028A2BF099817B0BDE8F08FE8
:10408000616881F000416160099817B04042BDE865
:10409000F08FFFE784461598C1F31301C0F30A506F
:1040A000A0F2F5304FEA601800F01F06C6F12000BC
:1040B000139000200690079041F4801E05206D4665
:1040C00076B1664A08EB00017A4452F8213002EBDF
:1040D0008101B3404A68139922FA01F1194305E0BE
:1040E0005F4908EB0002794451F82210A1FB0E272A
:1040F000A1FB0C131A449A4234BF0123002303EBA3
:10410000070A05EB8003D3E901B70F448F4234BFA0
:104110000121002193448B4411B1934502D903E05E
:10412000934501D2012100E00021C3E901B75144C8
:1041300045F82010011EA0F10100C1DC0298059F86
:1041400000F10050800F12900298DDE903568000C4
:10415000FFF7E0FD834628460D91FFF7ECFD6FF079
:104160001D02FFF7C0FDCDE90E013046FFF7E3FD6C
:104170006FF03D02FFF7B7FD80468A463846FFF7ED
:10418000DAFD6FF05D02FFF7AEFD0746424653468B
:104190001191FFF720FCDDE90E23FFF71CFC5A46C6
:1041A0000D9BFFF718FC00250E465A4628460D9B2E
:1041B000FFF7B2FCDDE90E23FFF7AEFC42465346A3
:1041C000FFF7AAFC3A46119BFFF7A9FCDFF898A07D
:1041D000244A5346FFF7A6FC07468846234A244B49
:1041E00031462846FFF79EFC3A464346FFF7F3FB6D
:1041F000074688464FF0A842534631462846FFF707
:1042000091FC3A464346FFF7E6FB159A12F0004F41
:1042100004D0129A81F0004152421292C4E9000186
:10422000129817B0BDE8F08FFB21E93F7CD902401E
:10423000FB21F93F7370032E8A19A33B0000405401
:104240003163621A61B4D03DFB21394183C8C96D25
:10425000305FE43F0000E03FB00600002C060000A5
:104260000E060000182D4454FB21F93D3326A611FB
:10427000460B113C2DE9FF4D21F0004807460C4646
:10428000B8F1795F08DAFFF763FD002801BF00206D
:10429000324904B0BDE8F08D3A462346104619462F
:1042A000FFF740FC054602462D480E460B46062108
:1042B000784400F05DF82A463346FFF733FCDDE929
:1042C000022382468B4638462146FFF72BFC0446E4
:1042D0000F4652465B4628463146FFF723FC2246EE
:1042E0003B46FFF719FC07468A464FF0FF32284647
:1042F0003146FFF7F8FC1B4A90450ADA3A46534626
:10430000FFF70AFC04B00022BDE8F04D134BFFF7A5
:1043100006BC154A4245A8BFA8F500154FF0000499
:10432000B8BF124D22462B46FFF7F6FB06468846DD
:1043300022462B4600200949FFF7EEFB04460D46B6
:104340003A46534630464146FFF7E6FB04B0224664
:104350002B46BDE8F04DFFF7E2BB00000000F03F48
:10436000E40300003333D33F0000E93F0000D23FB5
:104370002DE9F0414F1E00EBC7010446D1E90001D1
:1043800015461E4637F006020DD02A463346FFF783
:10439000C9FB7F1E04EBC703D3E90023FFF71BFB18
:1043A00037F00602F1D1022F25D0042F13D0062FAB
:1043B00018BFBDE8F0812A463346FFF7B3FBD4E9C6
:1043C0000A23FFF708FB2A463346FFF7ABFBD4E985
:1043D0000823FFF700FB2A463346FFF7A3FBD4E987
:1043E0000623FFF7F8FA2A463346FFF79BFBD4E98A
:1043F0000423FFF7F0FA2A463346FFF793FBD4E98C
:104400000223FFF7E8FA2A463346FFF78BFBD4E98D
:104410000023BDE8F041FFF7DEBA00002DE9FF4DB3
:10442000054621F0004084B00C46B0F1795F0BDA0C
:104430002846FFF746FD042808BF00F06FF828461D
:1044400008B02146BDE8F08D2A460B461046FFF71E
:1044500069FB06460F462A462346FFF763FB804664
:1044600026488A4632463B4605217844FFF780FFBE
:1044700083461098029160B3214A224B4046514630
:10448000FFF750FBCDE900015A4640465146029BDA
:10449000FFF748FB82468846DDE906014FF0FF3210
:1044A000FFF721FC52464346FFF736FB32463B46B8
:1044B000FFF738FBDDE90623FFF72EFBDDE90023DC
:1044C000FFF72AFB08B02A462346BDE8F04DFFF768
:1044D00026BB0B465A4630463946FFF723FB084AAF
:1044E000084BFFF778FA42465346FFF71BFB08B02C
:1044F0002A462346BDE8F04DFFF76DBA22030000BF
:10450000495555555555C5BF0122FFF7ECBB002253
:10451000134610461146FFF777BB0000024A002001
:104520001107FFF7E0BB000001FDFFFF02E008C834
:10453000121F08C1002AFAD170477047002001E01D
:1045400001C1121F002AFBD1704700000149086019
:10455000704700005801002000B5244B21F00042B4
:1045600087B09A42DCBF0022134629DD204B9A42D5
:1045700008D140B94FF00100FFF7E8FFFFF7C7FF90
:1045800007B000BD03DBFFF7BFFF07B000BD02AA05
:10459000FFF7ACFC10F0030104BF0DF1080C9CE820
:1045A0000F000DD0012001290ED0022914D00DF1E9
:1045B000080C00909CE80F00FFF730FF07B000BD2B
:1045C000FFF758FE07B000BD0DF1080C00909CE805
:1045D0000F00FFF723FF05E00DF1080C9CE80F002A
:1045E000FFF748FE07B081F0004100BDFB21E93F25
:1045F0000000F07F00B5254B21F0004287B09A42C1
:1046000003DC0022134600922BE0214B9A4208D192
:1046100040B94FF00100FFF799FFFFF778FF07B0AF
:1046200000BD03DBFFF770FF07B000BD02AAFFF774
:104630005DFC10F003014FF001000DD0012914D0F2
:1046400002291AD00DF1080C9CE80F00FFF712FEAA
:1046500007B081F0004100BD0DF1080C00909CE80E
:104660000F00FFF7DBFE07B000BD0DF1080C9CE862
:104670000F00FFF7FFFD07B000BD0DF1080C009023
:104680009CE80F00FFF7CAFEE2E70000FB21E93FCC
:104690000000F07F000000004C5555555555A53FD2
:1046A0007751C1166CC156BF9015CB19A001FA3EC7
:1046B000AD529C804F7E92BEC4B1B4BD9EEE213EF1
:1046C000D43888BEE9FAA8BD00004054FB21F93F68
:1046D0003163621A61B4D03D0000601A61B4D03D0C
:1046E0007370032E8A19A33B0000002E8A19A33B86
:1046F000C14920259A837B3900000000000000009A
:104700006E83F9A22915444ED15727FCC0DD34F53C
:10471000999562DB4190433CAB6351FE61C5BBDEC2
:104720003A6E24B7E0D24D42EA2E49061C92D109D6
:104730001CEB1DFE3EA729B1F53582E88444BB2E53
:1047400026709CE9417E5FB439D69139F4395383A0
:104750008B5F849C3B28F9BDFF97F81F0F9805DEFF
:104760008B112FEF1F6D0A5ACF7E366DB709CB27FD
:10477000663F464F2DEA5F9EC7BA27757BF1E5EB92
:10478000F739073DEA92528AB15FFB6B085D8D1FD6
:10479000A6F810111111813FD561C119A0012ABFDE
:1047A0007DFEB157E31DC73EEB9C2B8AE6E55ABE62
:1047B0007CD5CF5A3AD9E53DD84700080000002003
:1047C0005C0100006C3E0008444800085C010020C9
:1047D000FC0400003C4500081184A24A0468090159
:1047E000020304060708090C6910051C02040608E8
:1047F00025FE1534432380401BF04108201642D883
:104800000FC93FDC0F4940E4CB9640DC0FC9400A9A
:10481000D7A33B1AC324012632013985091E281962
:104820002920090AD7233CCDCCCC3D0318403F09B1
:104830002224A11A10C44310C109228481C92C5218
:044840003100000043
:0400000508000131BD
:00000001FF
